:02000004080AE8
:1000000000000A08A43E0A080000050006000501D9
:080010000402EA0300000000F5
:1000180010380A0809480A4908B5884205D0094A2B
:10002800824202D0121A03F0F5FA0748074A002163
:10003800121A03F0FAFA064808BD00BF00030020B0
:10004800043E0A087803002078030020D00B002023
:10005800D00B002070B501F077FF074B074C1E4608
:10006800E41AA4080025A54204D056F8253098477C
:100078000135F8E770BD00BF503D0A08F83D0A0891
:1000880000F0C2BA08B500F01DFABDE8084001F05A
:100098001DBF01F05DBC01F063BC0078B0FA80F0D0
:1000A8004009704701230370704701F07BBA01F0E3
:1000B80079BA01F077BA704710B5074C012120468C
:1000C80000F083FC2046054900F00AFC2046BDE804
:1000D800104000F008BC00BF7C03002090D0030053
:1000E80010B5064C01F05EFA204600F0E5FB20460C
:1000F800BDE81040024A034902F004BA7C0300201C
:1001080078030020BF000A0810B50A4C4FF4E1310B
:10011800204600F095FF204600F0AEFF642001F075
:100128008BFE02F09DF8BDE810404FF4E13102F07B
:1001380091B800BF6C04002013B5012243F21A31B4
:10014800114801F0D3F90146D0B90F4800F09AFFE1
:1001580002F082FC00220D4B02F01EFE0C4CC4E99A
:10016800000101F0D7FF02230093D4E9002301F036
:1001780015FE01F0CFFF074901F009FD012000E05D
:10018800002002B010BD00BF6C04002000005940E0
:10019800280600204A3A0A0837B5022243F21B31E2
:1001A800154801F0A3F9044610BB0121124800F0DC
:1001B80069FF21460546104800F064FF40EA054003
:1001C80002F05AFC00220D4B02F0E6FD0C4CC4E98B
:1001D800000101F09FFF02230093D4E9002301F0FE
:1001E800DDFD01F097FF074901F0D1FC012000E097
:1001F800002003B030BD00BF6C040020000059404F
:10020800300600204A3A0A0813B501224FF4445137
:10021800114801F06BF90146D0B90F4800F032FFE0
:1002280002F01AFC00220D4B02F0B6FD0C4CC4E99A
:10023800000101F06FFF02230093D4E9002301F0CD
:10024800ADFD01F067FF074901F0A1FC012000E0C6
:10025800002002B010BD00BF6C040020000059400F
:10026800E00500204A3A0A0813B5012243F20111B9
:10027800114801F03BF90146D0B90F4800F002FFE0
:1002880002F0EAFB00220D4B02F086FD0C4CC4E99B
:10029800000101F03FFF02230093D4E9002301F09D
:1002A8007DFD01F037FF074901F071FC012000E0F6
:1002B800002002B010BD00BF6C04002000005940AF
:1002C800200600204A3A0A0813B5012243F20D110C
:1002D800114801F00BF90146D0B90F4800F0D2FEE1
:1002E80002F0BAFB00220D4B02F056FD0C4CC4E99B
:1002F800000101F00FFF02230093D4E9002301F06D
:100308004DFD01F007FF074901F041FC012000E025
:10031800002002B010BD00BF6C040020000059404E
:10032800180600204A3A0A0813B5012243F21011B0
:10033800114801F0DBF80146D8B90F4800F0A2FED9
:1003480000B202F099FB00220C4B02F025FD0C4C88
:10035800C4E9000101F0DEFE02230093D4E9002382
:1003680001F01CFD01F0D6FE064901F010FC012049
:1003780000E0002002B010BD6C04002000005940CD
:10038800A00500204A3A0A0813B5012243F21A11BF
:10039800114801F0ABF80146D0B90F4800F072FEE1
:1003A80002F05AFB00220D4B02F0F6FC0C4CC4E99B
:1003B800000101F0AFFE02230093D4E9002301F00D
:1003C800EDFC01F0A7FE074901F0E1FB012000E088
:1003D800002002B010BD00BF6C040020000059408E
:1003E800B00500204A3A0A08C2B208B502210348FB
:1003F80001F081F8B0FA80F0400908BD6C040020D3
:1004080008B501F0CFF8BDE808400121014800F027
:1004180013BE00BF6C04002030B5002385B0102245
:1004280000938DF805308DF806308DF8073002936B
:1004380003938DF8042001F0EDFC0C4C054623686D
:1004480003B920600A4800F04DFA694601F07FFFC1
:10045800084B10B101221A6004E02268AD1A052D7C
:10046800C8BF1860186805B030BD00BF8C050020F3
:100478007C0300200003002001F094B801F092B83A
:1004880038B50D49054601F037FB044618B10B4B4A
:1004980001221A6006E00A49284601F02DFB30B116
:1004A800064B1C60054B1868FFF79EFF10B94FF00C
:1004B800FF3038BD012038BD24380A08D005002097
:1004C800C5380A082DE9704301F0B4F83B4D0646DB
:1004D8002B68C41AFFF7A0FFB4F5FA6F6CD9384C33
:1004E8002368062B43D8DFE803F0040B12192027F2
:1004F8003600FFF721FE58BB01F00CFE314921E020
:10050800FFF74AFE20BB01F005FE2F491AE0FFF76E
:100518007BFEE8B901F0FEFD2C4913E0FFF7A4FECD
:10052800B0B901F0F7FD2A490CE0FFF7CDFE78B924
:1005380001F0F0FD274905E0FFF7F6FE40B901F0AC
:10054800E9FD254901F023FB40F6B83001F074FCC1
:10055800236801330CE0FFF717FF40B901F0DAFD1B
:100568001E4901F014FB40F6B83001F065FC002389
:1005780023601B491B4BD1E90001D3E9002302F09A
:10058800E1FA194BC3E90001184B1949D3E900896D
:10059800D1E9000142464B4602F0D4FA154B4246D7
:1005A800C3E9000114494B46D1E9000102F0CAFA37
:1005B800124B2E60C3E90001BDE870839805002046
:1005C8001006002027380A083D380A0852380A0859
:1005D80066380A087A380A088B380A08A3380A08DD
:1005E80020060020E0050020C00500202806002085
:1005F80030060020A805002018060020C8050020A5
:100608000023092201F074B908B5FFF755FDFFF77B
:100618007BFD284A2849294801F0D8FC284929485F
:10062800FFF7EEFF28492948FFF7EAFF284929483C
:10063800FFF7E6FF002302222749284801F058F96E
:1006480027492848FFF7DCFF27492848FFF7D8FF44
:1006580027492848FFF7D4FF27492848FFF7D0FF44
:1006680027492848FFF7CCFF27492848FFF7C8FF44
:1006780027492848FFF7C4FF27492848FFF7C0FF44
:1006880027492848FFF7BCFF27492848FFF7B8FF44
:1006980027492848FFF7B4FF27492848FFF7B0FF44
:1006A80027492848FFF7ACFF27492848FFF7A8FF44
:1006B80008BD00BFB3380A0889040A08A91F0A0838
:1006C800E0050020C9380A0820060020D4380A08A6
:1006D800C0050020DF380A0804030020E8380A08AB
:1006E800A0050020EE380A08F005002001390A08A4
:1006F8001806002015390A08C805002024390A08F8
:100708002806002031390A083006002041390A0835
:10071800A805002051390A08B005002066390A08E2
:100728009005002072390A08B80500207E390A08A9
:10073800D80500208A390A080006002096390A08D8
:10074800E8050020A2390A0808060020B3390A087B
:1007580037B500F027FF4FF69C730D4C00256380DA
:100768004FF6FF730120A380257001F08DF802A8D1
:1007780040F8045D2A46294600F074FF019B1E2BB1
:1007880004D10323237011236580A38003B030BDF7
:10079800F8050020012A02D0022A02D004E00160F4
:1007A80002E008B10B6803600020704710B5012310
:1007B8000374836804460BB1C06806E0006828B17A
:1007C80083680BB901F0BBFEC368984701236374C3
:1007D8000020BDE8104000F07DBF10B583680446D6
:1007E80013B1032201469847204610BD2DE9FF4169
:1007F80006460F4614202E491546984601F090FEED
:10080800044630B100230374036043608360C3600F
:1008180043743460002C38D02549102001F080FE44
:100828000346B0B10022826002AA95E8030082E87C
:10083800030093E8030085E8030092E8030083E8D7
:1008480003009968AA68A9609A60EA68D968E960AB
:10085800DA60256823602DB12846FFF7BEFF2846D9
:10086800FFF719FC306803687BB10A9B42468DE8A4
:10087800090039460F4B043000F0FCFE28B93368F4
:100888001B7C8BB900F0FEFEF9E734680023336067
:1008980054B125682DB12846FFF79FFF2846FFF77A
:1008A800FAFB2046FFF7F7FB304604B0BDE8F081BD
:1008B800EC3B0A08B5070A0810B5044620231A4677
:1008C800002101F035FD054B04F10C0063600023A5
:1008D800A36000F0C8F8204610BD00BF20A10700A3
:1008E80041607047704710B504460121002001F0AF
:1008F8006DFD0021084601F07AFD61682046BDE8DB
:100908001040002201F01FBD30B5044687B0012118
:100918000A2001F05BFD01210A2001F068FD01F0C9
:100928009FFC4FF4165101F095FCA368ABB90C4B32
:10093800042005930B4B02940493FFF7AAFB05468A
:1009480038B14FF44063009302AA02230649FFF727
:100958004DFFA56002A8FFF740FF07B030BD00BFFC
:10096800610A0A089D070A08C4390A0808B50B2055
:1009780001F056FD02F098FC054902F0E9FC4FF041
:10098800665102F0E5FC034902F0E2FC08BD00BF35
:10099800333353406666E64010B5044600210B2009
:1009A80001F014FD2046FFF7E1FF10BD90F8EC00C0
:1009B80000F00100704790F8EC00C0F34000704769
:1009C80090F8EC00C0F38000704710B580F8EC1088
:1009D8000446FFF7EBFF10B12046FFF784FF2046DF
:1009E800FFF7E9FF10B12046FFF78EFF2046FFF71B
:1009F800E7FF10B12046FFF7CFFF10BD70B50446E2
:100A080000F10C0600F1E405D4F8E43013B92846E7
:100A180000F048FED4F8E40000F04CFE01F020FCA1
:100A280003681B69984748B101F01AFC03685B69C1
:100A38009847C1B2304600F08FFAEFE7D4F8E430B7
:100A480013B9284600F02EFED4F8E40000F03AFE70
:100A5800012001F0F1F9D7E708B50068FFF7CEFFEC
:100A680008BD00F09FBD0022022102704270828002
:100A7800826002730282426102768283026280F897
:100A880024200285C26280F8302080F8382080F85F
:100A98003920C26380F8482080F84920C26480F871
:100AA800582080F85920026680F8682080F869206C
:100AB800026780F8782080F87920C0F8802080F8D4
:100AC800882080F88920C0F8902080F8982080F845
:100AD8009920C0F8A02080F8A82080F8A92080F8E4
:100AE800B91080F8BA2080F8BB2080F8BC20C0F884
:100AF800C020C0F8C420C0F8C820C0F8CC20C0F876
:100B0800D020C0F8D42080F8AA207047A1F1410372
:100B1800052B02D8A1F137007047A1F16103052B1D
:100B280094BFA1F15700A1F13000704738B50446D1
:100B380005782D2D08BF0134204602F059FD6423A5
:100B48005843224614F8013BA3F130010929F8D98A
:100B58002E2B0BD15378303B092B07D80A2101FBE8
:100B680003009378303B092B98BFC0182D2D08BF80
:100B7800404238BD38B504460D4602F039FD6423BD
:100B8800B0FBF3F203FB1200114B2A8043432046CB
:100B980002780446A2F13001092900F10100F7D9D1
:100BA8002E2A0BD10A490A2014F8012F303A092AB3
:100BB80004D8B1FBF0F101FB0233F5E703EB830343
:100BC80001330322B3FBF2F36B6000232B7238BDB1
:100BD80080969800034610B553F81C2F04464260CF
:100BE8005A6882601B7A0373034653F8282F026100
:100BF8005A6842611B7A037600F01CFD012360638A
:100C080063702370208A01F037FF0022002302F06E
:100C180001FA38B9A08801F02FFF0022002302F062
:100C2800F9F908B10023237010BD10B58368044694
:100C3800436000F0FFFC0123637023706368E06089
:100C480003B9237010BD10B583680446436000F0F3
:100C5800F1FC0123637023706368E06003B92370BB
:100C680010BD10B504460846FFF760FFA06010BD30
:100C780010B50446084602F0BBFCA06010BD10B5D4
:100C8800C3680446836000F0D5FC0123606063708C
:100C9800237010BD10B504460846FFF747FFE06013
:100CA80010BD10B5C3680446836000F0C3FC01237F
:100CB80060606370237010BD10B50446084602F0EA
:100CC80097FCE06010BD10B501460446103002F0F4
:100CD800E7FC00F0AFFC0123206284F8253084F89B
:100CE800243010BD102202F0EBBC0000F8B590F8DB
:100CF800A9500446002D6BD090F8AA10FFF706FF04
:100D080094F8AB1002462046FFF700FF94F8A8308D
:100D180000EB0210C0B2834253D1D4F8D43001336F
:100D2800C4F8D43094F8BC3023B1D4F8CC300133B3
:100D3800C4F8CC3094F8B930C3B1012B2ED104F1EA
:100D48003800FFF772FF04F14800FFF77CFF94F8C2
:100D5800BC3084F8BD300BB32046FFF73BFF04F1ED
:100D68005800FFF78CFF04F1680015E004F1480013
:100D7800FFF769FF94F8BC3084F8BD3033B12046E2
:100D8800FFF728FF04F17800FFF779FF04F18800E6
:100D9800FFF787FF04F19800FFF771FFD4F8C460EC
:100DA800002E00F0CE80D4F8C430B06A996A02F000
:100DB8006DFC002840F0C5803046FFF784FF366B95
:100DC800EEE7D4F8D03000250133C4F8D030B8E0CD
:100DD80090F8BA2072BB00F1AA065B49304602F0CF
:100DE80055FC20B15949304602F050FC08B901239E
:100DF8000CE05749304602F049FC20B155493046CD
:100E080002F044FC08B9002300E0022384F8B9305A
:100E1800D4F8C030C4F8C430D4F8C470002F00F03F
:100E280090803146B86A02F031FC002880F2858053
:100E38003B6BEFE790F8B910022966D090F8AA301A
:100E4800002B62D042EA4112013A282A5DD8DFE835
:100E580002F01520232A31464D53575C5C5C5C5CDC
:100E68005C5C5C5C5C5C5C5C5C5C5C5C5C5C5C5CBA
:100E78005C5C151B20232A31383C400000F1AA0194
:100E88004830FFF7EEFE40E0A3F141004342434102
:100E980029E000F11C0108E0A3F153014B424B414A
:100EA80080F8243031E000F1280104F1AA00FFF7AE
:100EB80061FE2AE0A3F157025342534180F83030D3
:100EC80023E000F1AA0158301DE000F1AA016830C2
:100ED80019E000F1AA013830FFF7CAFE15E0302BFF
:100EE80094BF0023012384F8BC300EE000F1AA016E
:100EF8008830FFF7E1FE08E000F1AA01983002E02F
:100F080000F1AA017830FFF7C5FED4F8C46004F1F7
:100F1800AA07B6B1D4F8C430B06A996A02F0B6FB31
:100F280078B9F26A94F8BA309A420ADC03D13946A1
:100F38003046FFF7D7FE366BEBE702D00023C4F844
:100F4800C4302846F8BD00BFCF390A08D5390A0889
:100F5800DB390A08E1390A0838B5D0F8C83024293D
:100F680003F1010304460D46C0F8C8302AD090F8B2
:100F7800BB3004D80A290CD00D2932D109E02A291E
:100F880007D02C292DD190F8A82082F02C0280F8C7
:100F9800A8200E2B4FF0000005D8234483F8AA00A0
:100FA8002046FFF7A3FE94F8BA30013384F8BA302C
:100FB800002384F8BB30A5F12A035D425D4184F823
:100FC800A95038BD0020022384F8BB0084F8BA0079
:100FD80084F8A80084F8B93084F8A90084F8BC0023
:100FE80038BD0D2B9FBF5A1C1B1984F8BB2083F8F2
:100FF800AA5094F8A90028B994F8A8104D4084F88C
:10100800A85038BD002038BD00F0CCBA704710B5E4
:101018000446FFF740F8204610BD4840082310F06A
:10102800010F4FEA60001ABF80F4204080F00100F1
:1010380080B2013BF3D170470122027041707047C2
:1010480038B5002380F81031A0F812310D4601F0B0
:1010580007F9084C4368294663608368A360C3683E
:10106800E360037C2374437C02486374BDE8384022
:1010780001F0F0B83C060020014B00221A707047BE
:10108800500600203F299ABF043130F811004FF66E
:10109800FF7070472DE9F0474378C0B01729044620
:1010A8000E468DF800308DF8011014D80123B54A8A
:1010B8008B401A40002A00F0A2818288110A8DF81C
:1010C8000320C2888DF80210110A8DF805208DF8CA
:1010D8000410062294E10222731F122B00F28B8067
:1010E800DFE803F00A0F89898989898989891B4E74
:1010F8008989898989734E00531CDBB2B4F88A1038
:1011080003E0531CB4F88C10DBB2080A0DF8020097
:101118000232D2B20DF803106DE0B4F88A30501CD8
:10112800190AC0B20DF8021013F0070F0DF80030BD
:101138004FEAE30302F1020118BF0133C9B2D51C1B
:10114800DBB204320DF80130EDB2D1B20027F8B2AB
:101158004A1E9842D2B202D35A19D2B24BE010F0CA
:10116800010F4FEA670004EB4000B0F88C0001F172
:10117800010118BF000A0DF802000137C9B2E6E7FD
:10118800B4F88A30501C190A0DF80210C0B2911C2C
:101198000DF80030C9B258000332D2B20DF8010080
:1011A8000025DBB2E9B2994205F1010523DA04EB27
:1011B8004101B1F88C10501C0F0A0DF80270C0B232
:1011C8000232D2B20DF80010ECE7B4F88C10B4F883
:1011D8008E000B0A0DF80230531CDBB20DF8031019
:1011E800D31C911CDBB2C9B2050A04320DF80150B8
:1011F800D2B20DF803004FF6FF700025EBB29A4209
:1012080005D91DF80510FFF708FF0135F6E70DF8B9
:10121800020002F102080132000AD2B20DF80200FF
:101228005FFA88F8002358480DF8083000F0D9FF15
:1012380010B1554800F0DBFF544D2978012903D13E
:10124800534B187801F0D3F8524F3B78012B04D157
:1012580000F060FF504900F087FC4FF000095FFA8A
:1012680089F3984516D91DF809A04748514600F05A
:10127800C4FF3B78012B0AD100F04CFF51461022E5
:1012880000F0B9FC00F046FF444900F06DFC09F19C
:101298000109E4E73B78012B09D100F03BFF3F4906
:1012A80000F075FC00F036FF3D4900F05DFC364863
:1012B80000F0A0FF2B78012B04D1354B00211878C2
:1012C80001F095F800F0B6F909254FF0000800F193
:1012D800C8092D4800F085FF08B32B4800F087FFA8
:1012E8000DF808009DF80030002B00F0E9803B78ED
:1012F80008F10108012B5FFA88F80DD100F00AFF08
:101308000DEB080313F8011C102200F074FC00F028
:1013180001FF224900F028FC013DEDB203E0D4F8BA
:101328001C3103B19847B8F1050F22D19DF8002070
:1013380063789A4224D19DF8012002F07F03B342DA
:1013480032D1110602D59DF802502EE0172A10D886
:1013580001239340134A1A4052B90A4A1A4022B943
:1013680013F4800F18BF052503E09DF8025000E034
:10137800032500F05FF9484540F2A280E22514E019
:10138800E02512E01E0080003C06002050060020E8
:1013980008030020380600200B3A0A08593A0A08C0
:1013A800103A0A0860800100E1253B78012B04D13E
:1013B80000F0B0FE4A4900F0EAFB002D40F08480BE
:1013C800B8F1040F2DD92A464FF6FF70A8F102068E
:1013D800D3B2B34202F1010204DA1DF80310FFF799
:1013E8001CFEF5E71DF80620C3B2934266D1E84417
:1013F80018F8013CC0F30F2083425FD111E00222AC
:101408003849194000293FF467AEB4F88810531CD6
:10141800080A0DF80200DBB20232D2B20DF803104E
:101428005AE69DF80120172A4ED8012303FA02F242
:101438002D4B134063BB12F0060F45D01A469DF89A
:1014480002604FEA660ED3B2734511DA3F2B0BD810
:101458009F1C0DEB470111F8010C1DF81770191DA1
:1014680000EB072024F8110084F819310132EAE76B
:10147800F20729D53F2B9EBF0DEB4301C9781A1DF2
:1014880003F1010398BF24F8121084F819311BE006
:101498009DF8021000224910D3B28B4214DA3F2B78
:1014A80008D80DEB43073E79FF78181D06EB072691
:1014B80024F8106084F819310132EDE7E32503E0E0
:1014C800002D7FF406AF70E72846002384F810311A
:1014D800A4F8123184F8183140B0BDE8F08700BF95
:1014E800593A0A086080C100180080008180C280D3
:1014F8000421FFF7CFBD002A14BF4FF47F4200221A
:10150800A0F88810A0F88A200521FFF7C3BD0000C5
:1015180008B500F047F800F0A3FE0A4B42680A49F4
:101528005A6082689A60C268DA60084A1A60027C67
:101538001A74427C18465A74BDE80840044A00F000
:10154800E1BF00BF3C06002015100A08903B0A08BE
:101558007803002000F026B800F024B800F022B884
:1015680000F020B800F01EB800F01CB800F01AB85F
:1015780000F018B800F016B800F014B800F012B86F
:1015880000F010B800F00EB800F00CB800F00AB87F
:1015980000F008B800F006B800F004B800F002B88F
:1015A80000F000B808B5024B1B681B68019308BD22
:1015B800B001060808B5024B1B685B68019308BDBB
:1015C800B001060808B5024B1B689B68019308BD6B
:1015D800B001060808B5024B1B68DB68019308BD1B
:1015E800B001060808B5024B1B681B69019308BDCA
:1015F800B001060808B5024B1B681B6B019308BDB8
:10160800B001060808B5024B1B68DB69019308BDE9
:10161800B401060808B5024B1B681B6A019308BD94
:10162800B401060808B5024B1B685B68019308BD46
:101638009C01060808B5024B1B685B69019308BD4D
:101648009C01060808B5024B1B68DB69019308BDBD
:101658009C01060808B5024B1B689B6D019308BDE9
:101668009C01060808B5024B1B68DB6E019308BD98
:10167800B801060808B5024B1B685B68019308BDF2
:10168800D001060808B5024B1B68DB68019308BD4A
:10169800D001060808B5024B1B681B6B019308BDF7
:1016A800D001060808B5024B1B685B6C019308BDA6
:1016B800D001060808B5024B1B68DB6C019308BD16
:1016C800D001060808B5024B1B685B6D019308BD85
:1016D800D001060808B5024B1B68DB6E019308BDF4
:1016E800D001060808B5024B1B689B69019308BD29
:1016F800C401060808B5024B1B685B6A019308BD64
:10170800C401060808B5024B1B689B6A019308BD13
:10171800C401060808B5024B1B68DB6A019308BDC3
:10172800C401060808B5024B1B681B6B019308BD72
:10173800C401060808B5024B1B685B6B019308BD22
:10174800C401060808B5024B1B689B6B019308BDD2
:10175800C401060808B5024B1B681B6C019308BD41
:10176800C401060808B5024B1B68DB6C019308BD71
:10177800C401060808B5024B1B681B6E019308BD1F
:10178800AC01060808B5024B1B685B6E019308BDE7
:10179800AC01060808B5024B1B689B6E019308BD97
:1017A800AC01060808B5024B1B68DB6E019308BD47
:1017B800AC01060808B5024B1B681B6F019308BDF6
:1017C800AC01060808B5024B1B685B6F019308BDA6
:1017D800AC01060808B5034B1B68D3F880300193A9
:1017E80008BD0000AC01060808B5024B1B681B6861
:1017F800019308BDD401060808B5024B1B685B6855
:10180800019308BDD401060808B5024B1B681B6983
:10181800019308BDD401060808B5024B1B681B6874
:10182800019308BDD801060808B5024B1B681B695F
:10183800019308BDD801060808B5024B1B685B690F
:10184800019308BDD801060808B5024B1B689B69BF
:10185800019308BDD801060808B5024B1B68DB696F
:10186800019308BDD801060808B5024B1B681B6A1E
:10187800019308BDD801060808B5024B1B681B6810
:10188800019308BDA401060808B5024B1B685B68F4
:10189800019308BDA401060808B5024B1B685B69E3
:1018A800019308BDA401060808B5024B1B689B6D8F
:1018B800019308BDA401060808B5034B1B68D3F8BB
:1018C8009030019308BD0000A401060808B5034B39
:1018D8001B68D3F89C30019308BD0000A4010608DA
:1018E80008B5024B1B681B69019308BDC8010608AF
:1018F80008B5024B1B681B68019308BDCC0106089C
:1019080008B5024B1B685B68019308BDCC0106084B
:1019180008B5024B1B689B68019308BDCC010608FB
:1019280008B5024B1B685B69019308BDCC0106082A
:1019380008B5024B1B681B6B019308BDCC01060858
:1019480008B5024B1B68DB6B019308BDCC01060888
:1019580008B5024B1B681B68019308BDA001060867
:1019680008B5024B1B685B68019308BDA001060817
:1019780008B5024B1B689B68019308BDA0010608C7
:1019880008B5024B1B68DB6A019308BDA001060875
:10199800704710B50446FEF77EFB204610BD0000D8
:1019A80070B504460E46074B0025036040F80C5FEF
:1019B800FFF770FE30462671FFF724FEA56020462B
:1019C80070BD00BF203A0A080079FFF723BE000067
:1019D8004FF69C7337B50D4C002563804FF6FF73A7
:1019E8002846A3802570FFF74FFF02A840F8045D42
:1019F8002A462946FFF736FE019B1E2B04D10323F6
:101A0800237011236580A38003B030BD52060020E7
:101A180010B504460068FFF7A3FF204610BD10B5B7
:101A28000446006808B1FFF79BFF00232360A3600A
:101A3800636010BD38B504460D4600680131FFF7F4
:101A480097FF10B184E82100012038BD10B5036864
:101A5800044613B143688B4207D22046FFF7EAFFDA
:101A680020B1A3680BB922681370012010BD70B5AE
:101A78000E46114604461546FFF7E8FF18B92046FA
:101A8800FFF7CDFF09E02A463146A560206801F03E
:101A9800C1FD2268A3680021D154204670BD38B525
:101AA8000023044603604360836003730D4639B125
:101AB800084601F0FDFD294602462046FFF7D7FFFC
:101AC800204638BD884210B50B46044607D0096841
:101AD80019B19A68FFF7CBFF01E0FFF7A0FF204696
:101AE80010BD10B504460023036043608360037390
:101AF800FFF7E8FF204610BD08B582680B4612B90B
:101B080019B9012008BD11B90368187802E0006806
:101B180001F0BCFDB0FA80F0400908BDF8B50646F2
:101B28000D468F180024BD420CD0336815F8011BF0
:101B38009B6830469847002801DB0444F3E7002CF3
:101B480008BF04462046F8BD70B505460C46084651
:101B580049B101F0ADFD2B68024621462846BDE893
:101B68007040DB68184770BD08B5FFF7EDFF08BD8A
:101B780003689B68184738B50D210546FFF7F8FF3D
:101B88000A2104462846FFF7F3FF204438BD38B53C
:101B98000546FFF7D9FF04462846FFF7ECFF204427
:101BA80038BD012A98BF0A2230B50B468BB00021F8
:101BB8008DF824100DF12304B3FBF2F505FB123365
:101BC800DBB2092B94BF30333733DBB2214604F83C
:101BD80001392B46002DEFD1FFF7B6FF0BB030BD12
:101BE80010B422B90368C9B29B6810BC1847D2B2B6
:101BF80010BCFFF7D6BFFFF7F3BF2DE9F04107464A
:101C08000E4615462AB9BDE8F0410368C9B29B687B
:101C180018470A2A02D1002901DA04E0D2B2BDE845
:101C2800F041FFF7BEBF2D21FFF7A2FF2A46044669
:101C380071423846FFF7B5FF2044BDE8F081000047
:101C48002DE9F84319468046104617461E469DF86A
:101C5800205001F011FA08B1474912E026F000447B
:101C68004FF0FF32454B3846214601F005FA68B976
:101C78004FF0FF32414B3846214601F0DFF928B9D1
:101C88003F494046FFF760FFBDE8F8834FF06042E8
:101C98003C4B3846314601F0E5F908B13A49F0E7DE
:101CA8004FF06042394B3846314601F0BDF9002803
:101CB800F4D1002200233846314601F0B5F938B195
:101CC8002D214046FFF754FF06F10046044600E088
:101CD80004462F494FF0000900205FFA89F39D421E
:101CE80006D900222B4B01F057F809F10109F4E756
:101CF8003A46334600F074FD0F46064601F0FAF9FD
:101D08000A22014681464046FFF74BFF04447DB353
:101D1800484600F0A1FE02460B463046394600F020
:101D28005DFD06460F4640461B49FFF70DFF04447C
:101D3800184B00223046394600F004FF0F4606468D
:101D480001F0B0F90A22014681464046FFF755FFE7
:101D58000444484600F090FE02460B463046394699
:101D680000F03CFD013D15F0FF0506460F46DFD1AA
:101D78002046BDE8F88300BF283A0A08FFFFEF7F36
:101D8800323A0A08FFFFEF412C3A0A08FFFFEFC179
:101D98000000E03F00002440303A0A089DF8001097
:101DA8000091FFF74DBF0000014A024B1A607047CF
:101DB800EF3A0A085806002008B50020FFF7B8FDDA
:101DC80028B1FFF7ADFD80F00100C0B208BD0120C9
:101DD80008BD10B50020FFF73DFC044668B9FFF7C1
:101DE8004BFD01280BD12046FFF75EFD38B9FFF700
:101DF800E3FF30B9FFF78CFDF9E7012010BD0020A3
:101E080010BDFFF7D9FF0020FFF724FC003018BFF2
:101E1800012010BD08B5FFF7DCFFBDE80840FFF75B
:101E280011BC0000024B1A68024B1A60704700BFD1
:101E38000C0300205C0600200021FFF72DBD10B523
:101E48000446FEF7CAFC204610BD000003480023E4
:101E58008360034A034900F055BB00BF60060020B9
:101E680078030020471E0A0808B5144B33B100F068
:101E780051F903681B699847002816DC104B33B1E9
:101E880000F0EEF903681B699847002810DC0D4B39
:101E98000BB1AFF300800C4B7BB100F077F903680E
:101EA8001B699847002806DC08BDAFF30080E5E70A
:101EB800AFF30080EBE7AFF3008008BD000000003F
:101EC80000000000000000000000000008B5FFF757
:101ED800CBFFFFF7AFFB014B186008BDF80A0020E5
:101EE8000248034A0349121A01F094BB0040024019
:101EF80004400240003E0A0807B5002300931A4632
:101F08006FF07701FFF7E2FC03B05DF804FB000017
:101F180007B543880A2B08D0502B09D1094B1B68F9
:101F28003BB103B05DF804EB1847FFF7E5FF06E0A7
:101F3800002300931A466FF07701FFF7C7FC03B040
:101F48005DF804FB7006002038B5104C104D23686E
:101F5800AB42104B0CBF012200221A7002D0FFF7CF
:101F6800BFFF2560FFF75EFB01F068FB0A4B1BB162
:101F7800FFF758FBAFF3008000210748FFF7E0FCAC
:101F8800BDE8384000210548FFF796BC00400240F4
:101F98001E1C279A7406002000000000191F0A085A
:101FA80010B588B004466846FFF779FD694604A86D
:101FB800FFF797FD04A8A047044604A8FFF728FDEB
:101FC8006846FFF725FD204608B010BDF0B5074666
:101FD8000E46154685B0102422460021684601F0B9
:101FE80024FB002269461046ADF80040029703968C
:101FF8000195FFF785FC05B0F0BD704710B50446A4
:10200800FEF749F8204610BDF8B50F4600F108065E
:10201800051D002416F8011D0A223846FFF7EBFDBE
:10202800AE42044407D0002CF4D02E213846FFF7E6
:102038009FFD0444EEE72046F8BD10B59DF8084022
:1020480044EA032343EA024242EA0161042341606D
:10205800037510BD37B5044D05609DF818500095FF
:10206800FFF7EBFF03B030BD4C3B0A0841747047E3
:1020780070470021007CFFF7E7BB0121007CFFF7D8
:10208800E3BB007CFFF7D8BB007CFFF7CDBB38B5BE
:102098000446007C0D46FFF7CFFB002801DC607C7E
:1020A80020B12946207CFFF7D7FB012038BD007CF2
:1020B800FFF7DABB10B50446FDF7EDFF204610BD6B
:1020C80010B50446002363604FF47A73A360054B90
:1020D800084623600123217463741146FFF79CFBB3
:1020E800204610BD603B0A0810B5044614220021A2
:1020F80001F09BFA054B20466360054BE36040F214
:10210800011323818123238210BD00BFFD06002017
:102118007C06002030B50E4D87B001A8FFF7E4FF1C
:10212800296811F0010410D12846FDF7B6FF60B107
:1021380001AA21460748FFF7C3FF2846FDF7B2FF6B
:10214800054A0649034800F0DDF9024807B030BDEA
:1021580078060020000800207803002079200A086B
:1021680010B504461422002101F05FFA054B204601
:102178006360054BE36040F20113238181232382CE
:1021880010BD00BFB00800201808002010B50E4C84
:1021980086B001A8FFF7E4FF2368DB0710D42046C8
:1021A800FDF77BFF60B101AA01210848FFF788FF0E
:1021B8002046FDF777FF064A0649044800F0A2F9D1
:1021C800024806B010BD00BF140800209C0800207B
:1021D8007803002079200A0841747047007CFFF7D3
:1021E800B9BA007CFFF78EBA007CFFF79BBA007C77
:1021F800FFF790BA007CFFF79DBA70B5457C04469E
:102208000E4625B9007CFFF7A5FA002805DD314602
:10221800207CBDE87040FFF76DBA284670BD00000D
:1022280010B5044608461146002262604FF47A72DF
:10223800A260054A20742260012262741A46FFF7E0
:1022480051FA204610BD00BF903B0A080023007CCD
:10225800FFF788BA0022FFF7F9BF007CFFF772BAD0
:1022680038B50C4D296811F0010411D12846FDF745
:1022780014FF68B1084A2146084B0948FFF7D0FF08
:102288002846FDF70FFF074A0749054800F03AF9C5
:10229800034838BD4C0A0020500A0020C809002015
:1022A800B40900207803002015100A087047F8B513
:1022B800064615460C468F18BC4206D0336814F8FB
:1022C800011B9B6830469847F6E72846F8BD002270
:1022D800007CFFF74FBA0021007CFFF753BA0021BA
:1022E800007CFFF757BA0021007CFFF75BBA00219A
:1022F800007CFFF75FBA10B50446FDF7CCFE204618
:1023080010BD000010B5044608464FF47A73A36068
:10231800044B0021207461602360FFF75BFA2046BC
:1023280010BD00BFC03B0A080021007CFFF74ABA75
:1023380010B504460846114620701A460023FFF7D8
:1023480053FA204610BD00230078FFF755BA002243
:102358000078FFF759BA7047002211461046FFF778
:10236800BFBA00000348044B044A0549036000F063
:10237800C9B800BFD40A0020E83B0A087803002047
:102388005F230A0810B504460F48FFF71DFB28B164
:10239800A4F10D03022B01D8002010BD00F092F823
:1023A800FFF7C2FF08B1012CF6D9FFF759FFFFF775
:1023B80054FF18B1A4F11203012BEDD9172C8CBFCF
:1023C8000020012010BD00BFD80A0020172838B50A
:1023D80004460D460AD8FF2908D0FFF7D3FF28B1D5
:1023E80029462046BDE83840FFF7ECB838BD38B577
:1023F80004460D46FFF7EEF8FF2810D0062804D84B
:102408004D2323FA00F0C30709D42046FFF7BAFF8B
:1024180028B129462046BDE83840FFF7E3B838BD63
:1024280010B5044609289CBF0A34A4B22046FFF719
:10243800A9FF50B103212046FFF7BCF8032804D1B7
:102448002046BDE81040FFF7D5B8002010BD0000B9
:1024580070B50C4C0C4E0D4D00212046FFF7A0FA2C
:1024680020460B4C3246294600F04CF80121204604
:10247800FFF796FA324629462046BDE8704000F03C
:1024880041B800BFD80A00207803002099190A082B
:10249800E80A002013B5084C00231A461946009391
:1024A8002046FFF7D7FD2046044A054902B0BDE89B
:1024B800104000F027B800BFFC0A00207803002075
:1024C80003200A0838B50B4D296811F001040FD113
:1024D8002846FDF7E2FD58B121460748FFF712FFED
:1024E8002846FDF7DFFD054A0549034800F00AF8CC
:1024F800014838BD140B0020180B00207803002079
:10250800B5220A080B460146184601F075B80000C6
:10251800024B1868BFF35F8F704700BF2C0B002079
:1025280010B5002814BF044601242046FFF710FA0E
:1025380020B9FFF7EDFF08B18047F6E710BD08B5F1
:10254800FFF71EFA184B1A68D1075CBF01221A6000
:10255800164B1A68D2075CBF01221A60144B1A681E
:10256800D0075CBF01221A60124B1A68D1075CBF02
:1025780001221A60104B1A68D2075CBF01221A6048
:102588000E4B1A68D0075CBF01221A600C4B1A6800
:10259800D1075CBF01221A600A4B1A68D2075CBFD8
:1025A80001221A60704700BF4C0B0020480B002026
:1025B800440B0020400B00203C0B0020380B00206F
:1025C800340B0020300B0020244B1A68D0075CBF66
:1025D80001221A60224B1A68D1075CBF01221A60D7
:1025E800204B1A68D2075CBF01221A601E4B1A687A
:1025F800D0075CBF01221A601C4B1A68D1075CBF68
:1026080001221A601A4B1A68D2075CBF01221A60AD
:10261800184B1A68D0075CBF01221A60164B1A685B
:10262800D1075CBF01221A60144B1A68D2075CBF3D
:1026380001221A60124B1A68D0075CBF01221A6087
:10264800104B1A68D1075CBF01221A600E4B1A683A
:10265800D2075CBF01221A60704700BF7C0B0020C4
:10266800780B0020740B0020700B00206C0B0020EE
:10267800680B0020640B0020600B00205C0B00201E
:10268800580B0020540B0020500B0020244B1A68D4
:10269800D0075CBF01221A60224B1A68D1075CBFC1
:1026A80001221A60204B1A68D2075CBF01221A6007
:1026B8001E4B1A68D0075CBF01221A601C4B1A68AF
:1026C800D1075CBF01221A601A4B1A68D2075CBF97
:1026D80001221A60184B1A68D0075CBF01221A60E1
:1026E800164B1A68D1075CBF01221A60144B1A688E
:1026F800D2075CBF01221A60124B1A68D0075CBF70
:1027080001221A60104B1A68D1075CBF01221A60B7
:102718000E4B1A68D2075CBF01221A60704700BFCF
:10272800AC0B0020A80B0020A40B0020A00B00205D
:102738009C0B0020980B0020940B0020900B00208D
:102748008C0B0020880B0020840B0020800B0020BD
:10275800184B1A68D1075CBF01221A60164B1A6819
:10276800D2075CBF01221A60144B1A68D0075CBFFD
:1027780001221A60124B1A68D1075CBF01221A6045
:10278800104B1A68D2075CBF01221A600E4B1A68F8
:10279800D0075CBF01221A600C4B1A68D1075CBFD6
:1027A80001221A600A4B1A68D2075CBF01221A601C
:1027B800704700BFCC0B0020C80B0020C40B0020C2
:1027C800C00B0020BC0B0020B80B0020B40B00206D
:1027D800B00B002081F0004102E000BF83F000430D
:1027E80030B54FEA41044FEA430594EA050F08BFA4
:1027F80090EA020F1FBF54EA000C55EA020C7FEA68
:10280800645C7FEA655C00F0E2804FEA5454D4EBE4
:102818005555B8BF6D420CDD2C4480EA020281EAAE
:10282800030382EA000083EA010180EA020281EAE6
:102838000303362D88BF30BD11F0004F4FEA013138
:102848004FF4801C4CEA113102D0404261EB410147
:1028580013F0004F4FEA03334CEA133302D05242CD
:1028680063EB430394EA050F00F0A780A4F1010489
:10287800D5F1200E0DDB02FA0EFC22FA05F28018C3
:1028880041F1000103FA0EF2801843FA05F35941A9
:102898000EE0A5F120050EF1200E012A03FA0EFC28
:1028A80028BF4CF0020C43FA05F3C01851EBE37152
:1028B80001F0004507D54FF0000EDCF1000C7EEB6F
:1028C80000006EEB0101B1F5801F1BD3B1F5001FAD
:1028D8000CD349085FEA30004FEA3C0C04F10104CC
:1028E8004FEA445212F5800F80F09A80BCF1004FF5
:1028F80008BF5FEA500C50F1000041EB045141EA77
:10290800050130BD5FEA4C0C404141EB010111F477
:10291800801FA4F10104E9D191F0000F04BF014622
:102928000020B1FA81F308BF2033A3F10B03B3F100
:1029380020020CDA0C3208DD02F1140CC2F10C0290
:1029480001FA0CF021FA02F10CE002F11402D8BFEE
:10295800C2F1200C01FA02F120FA0CFCDCBF41EABA
:102968000C019040E41AA2BF01EB0451294330BD89
:102978006FEA04041F3C1CDA0C340EDC04F1140466
:10298800C4F1200220FA04F001FA02F340EA03003D
:1029980021FA04F345EA030130BDC4F10C04C4F183
:1029A800200220FA02F001FA04F340EA0300294663
:1029B80030BD21FA04F0294630BD94F0000F83F4AD
:1029C800801306BF81F480110134013D4EE77FEA90
:1029D800645C18BF7FEA655C29D094EA050F08BFDC
:1029E80090EA020F05D054EA000C04BF19461046BD
:1029F80030BD91EA030F1EBF0021002030BD5FEA01
:102A0800545C05D14000494128BF41F0004130BD28
:102A180014F580043CBF01F5801130BD01F000457C
:102A280045F0FE4141F470014FF0000030BD7FEAEF
:102A3800645C1ABF194610467FEA655C1CBF0B46EA
:102A4800024650EA013406BF52EA033591EA030F01
:102A580041F4002130BD00BF90F0000F04BF0021F9
:102A6800704730B54FF4806404F132044FF000052C
:102A78004FF0000150E700BF90F0000F04BF0021A5
:102A8800704730B54FF4806404F1320410F000450B
:102A980048BF40424FF000013EE700BF42004FEA06
:102AA800E2014FEA31014FEA02701FBF12F07F4383
:102AB80093F07F4F81F06051704792F0000F14BF80
:102AC80093F07F4F704730B54FF4607401F00045C4
:102AD80021F0004120E700BF50EA010208BF70471B
:102AE80030B54FF000050AE050EA010208BF704710
:102AF80030B511F0004502D5404261EB41014FF479
:102B0800806404F132045FEA915C3FF4DCAE4FF07C
:102B180003025FEADC0C18BF03325FEADC0C18BF63
:102B2800033202EBDC02C2F1200300FA03FC20FAB4
:102B380002F001FA03FE40EA0E0021FA02F1144401
:102B4800C1E600BF70B54FF0FF0C4CF4E06C1CEA16
:102B580011541DBF1CEA135594EA0C0F95EA0C0F8B
:102B680000F0DEF82C4481EA030621EA4C5123EAFE
:102B78004C5350EA013518BF52EA033541F480112D
:102B880043F4801338D0A0FB02CE4FF00005E1FBE0
:102B980002E506F00042E0FB03E54FF00006E1FB2A
:102BA80003569CF0000F18BF4EF0010EA4F1FF046D
:102BB800B6F5007F64F5407404D25FEA4E0E6D41AD
:102BC80046EB060642EAC62141EA55514FEAC520BE
:102BD80040EA5E504FEACE2EB4F1FD0C88BFBCF53A
:102BE800E06F1ED8BEF1004F08BF5FEA500E50F1EB
:102BF800000041EB045170BD06F0004646EA0101B1
:102C080040EA020081EA0301B4EB5C04C2BFD4EBE2
:102C18000C0541EA045170BD41F480114FF0000EDB
:102C2800013C00F3AB8014F1360FDEBF002001F049
:102C3800004170BDC4F10004203C35DA0C341BDCC3
:102C480004F11404C4F1200500FA05F320FA04F095
:102C580001FA05F240EA020001F0004221F00041C9
:102C680010EBD37021FA04F642EB06015EEA430E3C
:102C780008BF20EAD37070BDC4F10C04C4F120056C
:102C880000FA04F320FA05F001FA04F240EA02001F
:102C980001F0004110EBD37041F100015EEA430EF0
:102CA80008BF20EAD37070BDC4F1200500FA05F210
:102CB8004EEA020E20FA04F301FA05F243EA02038F
:102CC80021FA04F001F0004121FA04F220EA02009E
:102CD80000EBD3705EEA430E08BF20EAD37070BDE4
:102CE80094F0000F0FD101F00046400041EB0101C4
:102CF80011F4801F08BF013CF7D041EA060195F0A6
:102D0800000F18BF704703F00046520043EB03035F
:102D180013F4801F08BF013DF7D043EA060370474C
:102D280094EA0C0F0CEA135518BF95EA0C0F0CD057
:102D380050EA410618BF52EA4306D1D181EA03019D
:102D480001F000414FF0000070BD50EA410606BF97
:102D58001046194652EA430619D094EA0C0F02D1DC
:102D680050EA013613D195EA0C0F05D152EA033621
:102D78001CBF104619460AD181EA030101F000413F
:102D880041F0FE4141F470014FF0000070BD41F088
:102D9800FE4141F4780170BD70B54FF0FF0C4CF462
:102DA800E06C1CEA11541DBF1CEA135594EA0C0F81
:102DB80095EA0C0F00F0A7F8A4EB050481EA030ECE
:102DC80052EA03354FEA013100F088804FEA0333B5
:102DD8004FF0805545EA131343EA12634FEA022283
:102DE80045EA111545EA10654FEA00260EF0004144
:102DF8009D4208BF964244F1FD0404F5407402D296
:102E08005B084FEA3202B61A65EB03055B084FEA26
:102E180032024FF480104FF4002CB6EB020E75EB23
:102E2800030E22BFB61A754640EA0C005B084FEA4B
:102E38003202B6EB020E75EB030E22BFB61A7546C8
:102E480040EA5C005B084FEA3202B6EB020E75EB13
:102E5800030E22BFB61A754640EA9C005B084FEA8B
:102E68003202B6EB020E75EB030E22BFB61A754698
:102E780040EADC0055EA060E18D04FEA051545EA87
:102E880016754FEA06164FEAC30343EA52734FEA30
:102E9800C2025FEA1C1CC0D111F4801F0BD141EAA9
:102EA80000014FF000004FF0004CB6E711F4801F0E
:102EB80004BF01430020B4F1FD0C88BFBCF5E06FEE
:102EC8003FF6AFAEB5EB030C04BFB6EB020C5FEAFE
:102ED800500C50F1000041EB045170BD0EF0004E53
:102EE8004EEA113114EB5C04C2BFD4EB0C0541EA85
:102EF800045170BD41F480114FF0000E013C90E682
:102F080045EA060E8DE60CEA135594EA0C0F08BF45
:102F180095EA0C0F3FF43BAF94EA0C0F0AD150EA44
:102F280001347FF434AF95EA0C0F7FF425AF1046D7
:102F380019462CE795EA0C0F06D152EA03353FF4FF
:102F4800FDAE1046194622E750EA410618BF52EA7C
:102F580043067FF4C5AE50EA41047FF40DAF52EA50
:102F680043057FF4EBAE12E74FF0FF3C06E000BFED
:102F78004FF0010C02E000BF4FF0010C4DF804CDFA
:102F88004FEA410C7FEA6C5C4FEA430C18BF7FEABA
:102F98006C5C1BD001B050EA410C0CBF52EA430CE8
:102FA80091EA030F02BF90EA020F0020704710F168
:102FB800000F91EA030F58BF994208BF90422CBFF7
:102FC800D8176FEAE37040F0010070474FEA410CF0
:102FD8007FEA6C5C02D150EA013C07D14FEA430C0E
:102FE8007FEA6C5CD6D152EA033CD3D05DF8040B7F
:102FF800704700BF8446104662468C4619466346B1
:1030080000E000BF01B5FFF7B7FF002848BF10F187
:10301800000F01BD4DF808EDFFF7F4FF0CBF0120CC
:1030280000205DF808FB00BF4DF808EDFFF7EAFF48
:1030380034BF012000205DF808FB00BF4DF808ED03
:10304800FFF7E0FF94BF012000205DF808FB00BFF8
:103058004DF808EDFFF7CEFF94BF012000205DF882
:1030680008FB00BF4DF808EDFFF7C4FF34BF01208F
:1030780000205DF808FB00BF4FEA410C7FEA6C5C5A
:1030880002D150EA013C0AD14FEA430C7FEA6C5C5A
:1030980002D152EA033C02D14FF0000070474FF0D2
:1030A800010070474FEA410212F5001215D211D5FE
:1030B8006FF47873B3EB625212D94FEAC12343F02D
:1030C800004343EA505311F0004F23FA02F018BFAF
:1030D800404270474FF00000704750EA013005D178
:1030E80011F0004008BF6FF0004070474FF000003B
:1030F800704700BF4A0011D212F5001211D20DD547
:103108006FF47873B3EB62520ED44FEAC12343F0E5
:10311800004343EA505323FA02F070474FF000008F
:10312800704750EA013002D14FF0FF3070474FF03E
:103138000000704780F0004002E000BF81F00041CD
:1031480042001FBF5FEA410392EA030F7FEA226C45
:103158007FEA236C6AD04FEA1262D2EB1363C1BFD5
:10316800D218414048404140B8BF5B42192B88BF44
:10317800704710F0004F40F4000020F07F4018BF67
:10318800404211F0004F41F4000121F07F4118BF87
:10319800494292EA030F3FD0A2F1010241FA03FC2F
:1031A80010EB0C00C3F1200301FA03F100F0004317
:1031B80002D5494260EB4000B0F5000F13D3B0F1DF
:1031C800807F06D340084FEA310102F10102FE2A4E
:1031D80051D2B1F1004F40EBC25008BF20F00100BE
:1031E80040EA03007047490040EB000010F4000F6C
:1031F800A2F10102EDD1B0FA80FCACF1080CB2EBFF
:103208000C0200FA0CF0AABF00EBC250524218435D
:10321800BCBFD0401843704792F0000F81F4000102
:1032280006BF80F400000132013BB5E74FEA4103D5
:103238007FEA226C18BF7FEA236C21D092EA030F41
:1032480004D092F0000F08BF0846704790EA010FBB
:103258001CBF0020704712F07F4F04D1400028BFE8
:1032680040F00040704712F100723CBF00F50000CA
:10327800704700F0004343F0FE4040F40000704700
:103288007FEA226216BF08467FEA236301464202AC
:1032980006BF5FEA412390EA010F40F480007047BF
:1032A8004FF0000304E000BF10F0004348BF404265
:1032B8005FEA000C08BF704743F0964301464FF0A1
:1032C80000001CE050EA010208BF70474FF00003FD
:1032D8000AE000BF50EA010208BF704711F000433E
:1032E80002D5404261EB41015FEA010C02BF84460E
:1032F8000146002043F0B64308BFA3F18053A3F56D
:103308000003BCFA8CF2083AA3EBC25310DB01FAB3
:1033180002FC634400FA02FCC2F12002BCF1004F37
:1033280020FA02F243EB020008BF20F001007047C8
:1033380002F1200201FA02FCC2F1200250EA4C001C
:1033480021FA02F243EB020008BF20EADC70704762
:103358004FF0FF0C1CEAD0521EBF1CEAD15392EA70
:103368000C0F93EA0C0F6FD01A4480EA010C40024C
:1033780018BF5FEA41211ED04FF0006343EA5010A6
:1033880043EA5111A0FB01310CF00040B1F5000FE8
:103398003EBF490041EAD3715B0040EA010062F197
:1033A8007F02FD2A1DD8B3F1004F40EBC25008BF81
:1033B80020F00100704790F0000F0CF0004C08BF9F
:1033C80049024CEA502040EA51207F3AC2BFD2F16C
:1033D800FF0340EAC250704740F400004FF000037A
:1033E800013A5DDC12F1190FDCBF00F000407047B4
:1033F800C2F10002410021FA02F1C2F1200200FAF2
:1034080002FC5FEA310040F1000053EA4C0308BFB8
:1034180020EADC70704792F0000F00F0004C02BF09
:10342800400010F4000F013AF9D040EA0C0093F084
:10343800000F01F0004C02BF490011F4000F013BDE
:10344800F9D041EA0C018FE70CEAD15392EA0C0F4C
:1034580018BF93EA0C0F0AD030F0004C18BF31F0B7
:10346800004CD8D180EA010000F00040704790F08D
:10347800000F17BF90F0004F084691F0000F91F031
:10348800004F14D092EA0C0F01D142020FD193EAF7
:103498000C0F03D14B0218BF084608D180EA01007F
:1034A80000F0004040F0FE4040F40000704740F05B
:1034B800FE4040F4400070474FF0FF0C1CEAD05229
:1034C8001EBF1CEAD15392EA0C0F93EA0C0F69D085
:1034D800A2EB030280EA010C49024FEA402037D0F0
:1034E8004FF0805343EA111143EA10130CF00040E7
:1034F8008B4238BF5B0042F17D024FF4000C8B42D7
:1035080024BF5B1A40EA0C00B3EB510F24BFA3EBB6
:10351800510340EA5C00B3EB910F24BFA3EB910386
:1035280040EA9C00B3EBD10F24BFA3EBD10340EAE0
:10353800DC001B0118BF5FEA1C1CE0D1FD2A3FF626
:1035480050AF8B4240EBC25008BF20F001007047DB
:103558000CF0004C4CEA50207F32C2BFD2F1FF037E
:1035680040EAC250704740F400004FF00003013AAF
:1035780037E792F0000F00F0004C02BF400010F453
:10358800000F013AF9D040EA0C0093F0000F01F067
:10359800004C02BF490011F4000F013BF9D041EA89
:1035A8000C0195E70CEAD15392EA0C0F08D14202BC
:1035B8007FF47DAF93EA0C0F7FF470AF084676E78F
:1035C80093EA0C0F04D14B023FF44CAF08466EE768
:1035D80030F0004C18BF31F0004CCAD130F0004236
:1035E8007FF45CAF31F000437FF43CAF5FE700BF8E
:1035F8000A22002100F0FEB810B5054C13462CB184
:103608000A4601460220AFF3008010BD204610BDD7
:103618000000000010B5431E0A44914204D011F87E
:10362800014B03F8014FF8E710BD034602449342EB
:1036380002D003F8011BFAE77047000038B5124BB7
:1036480005461C68A36BD3B91820FEF781F943F22D
:103658000E33A06303804AF6CD33438041F234230E
:1036680083804EF26D63C3804DF6EC6303810523BE
:1036780043810B23838101220023C0E90423A36B28
:1036880000221D615A6138BD7403002010F8012B17
:1036980011F8013B012A28BF9A42F7D0D01A704787
:1036A800034611F8012B03F8012B002AF9D17047C2
:1036B800034613F8012B002AFBD1181A013870476A
:1036C800034610B542B111F8014B013A03F8014B1A
:1036D800002CF7D11A4400E010BD934202D003F841
:1036E800014BFAE710BD00002DE9F0470F46804670
:1036F8003F48D0F800903D4615F8014B09EB04000F
:10370800407800F0080000F0FF0608B12F46F2E705
:103718002D2C03D1BD1C7C78012603E02B2C04BF83
:103728007C78BD1C13B1102B0AD15BE0302C57D12B
:10373800287800F0DF0058284DD16C781023023526
:10374800002E14BF4FF0004C6FF0004CBCFBF3FA96
:103758000027384603FB1ACC09EB040E9EF801E05B
:103768001EF0040F01D0303C0BE01EF0030E1BD0FE
:10377800BEF1010F0CBF4FF0370E4FF0570ECEEBD6
:103788000404A34210DDB7F1FF3F0AD0504506D824
:1037980001D1644503DC03FB0040012701E04FF041
:1037A800FF3715F8014BD7E77B1C0CD1002E4FF0E3
:1037B800220314BF4FF000406FF00040C8F80030FB
:1037C8002AB9BDE8F08706B1404272B107B1691E57
:1037D8001160BDE8F0873024002BB1D10823AFE792
:1037E8000A23ADE7302CA3D0AAE7BDE8F08700BFD5
:1037F8001003002013460A46014602480068FFF7F6
:1038080073BF00BF740300201D000A085D000A088A
:1038180089000A088D000A08000000006F6E006227
:1038280061747420766F6C742072656164206661BF
:10383800696C6564006261747420637572207265D6
:103848006164206661696C656400505620766F6C0F
:10385800742072656164206661696C656400505605
:1038680020637572722072656164206661696C6597
:1038780064006C6F61642072656164206661696CC4
:1038880065640074656D7065726174757265207227
:10389800656164206661696C656400534F432072FA
:1038A800656164206661696C65640048656174657A
:1038B800725F436F6E74726F6C5F6F6E5F6F666678
:1038C8000050565F566F6C746167650050565F43D1
:1038D800757272656E740050565F506F776572002E
:1038E80050565F494400496E736964655F54656D5D
:1038F8007065726174757265004F7574736964657B
:103908005F54656D706572617475726500486561B4
:103918007465725F43757272656E74004865617490
:1039280065725F506F776572004261747465727971
:103938005F566F6C74616765004261747465727973
:103948005F43757272656E74004261747465727952
:103958005F4368617267655F506F776572004261A7
:1039680074746572795F534F430042617474657271
:103978007931534F43004261747465727932534F01
:1039880043004261747465727933534F4300426156
:10399800747465727934534F43004261747465726C
:1039A800795F4D61785F54656D700042617474652C
:1039B80072795F4D696E5F54656D70006770735FF3
:1039C80073657269616C004750524D4300474E520F
:1039D8004D4300475047474100474E474741004E37
:1039E800004E4E4500454E4500455345005353454E
:1039F8000053005353570057535700574E57004E24
:103A08004E570054583A200052583A2000000000FF
:103A1800000000000000000099190A089B190A0814
:103A28006E616E006F7666002E00696E66006C6EC1
:103A380000666E00636F64650064657461696C009C
:103A48000D0A00253031307520005D200025640006
:103A58002C200028293A2000205B00636F64652031
:103A68003D200025690064657461696C73203D2000
:103A780000626175640053657269616C0055534258
:103A880053657269616C3100747970650070617298
:103A9800616D00636D6400696400686E640073742E
:103AA800726D0066696C74006C766C0061646448C1
:103AB800616E646C65720072656D6F766548616EE3
:103AC800646C657200656E756D48616E646C6572D4
:103AD80073004A534F4E53747265616D4C6F67485B
:103AE800616E646C657200617070006E6F6E650067
:103AF800747261636500696E666F007761726E004B
:103B08006572726F720070616E696300616C6C003F
:103B18005A00252B3033643A253032750025592D4B
:103B2800256D2D25645425483A254D3A2553257A87
:103B38000061736374696D65000000000000000097
:103B48000000000011200A0803200A0805200A08BE
:103B5800000000000000000079200A08BD200A08C3
:103B680097200A08251B0A0891200A087B200A08C2
:103B780083200A08B7200A088B200A0875200A083B
:103B8800000000000000000015100A0817100A08BD
:103B980003220A08251B0A08EB210A08F7210A084C
:103BA800F1210A08FD210A08E1210A08E5210A088D
:103BB8000000000000000000B5220A08FF220A08E1
:103BC800D7220A08B7220A08DF220A08E7220A08C9
:103BD800EF220A08F7220A0800000000000000008F
:103BE80061230A08000020202020202020202028EF
:103BF800282828282020202020202020202020209D
:103C080020202020202088101010101010101010D4
:103C18001010101010100404040404040404040414
:103C28001010101010101041414141414101010193
:103C3800010101010101010101010101010101016C
:103C48000110101010101042424242424202020279
:103C5800020202020202020202020202020202023C
:103C680002101010102000000000000000000000EA
:103C7800000000000000000000000000000000003C
:103C8800000000000000000000000000000000002C
:103C9800000000000000000000000000000000001C
:103CA800000000000000000000000000000000000C
:103CB80000000000000000000000000000000000FC
:103CC80000000000000000000000000000000000EC
:103CD80000000000000000000000000000000000DC
:103CE80000000000000000000000000000000000CC
:103CF80000000000000000000000000000000000BC
:103D080000000000000000000000000000000000AB
:103D1800000000000000000000000000000000009B
:103D2800000000000000000000000000000000008B
:103D3800000000000000000000000000000000007B
:103D48000000000000000000B3000A08B7000A08DD
:103D5800BB000A08E9000A0809040A0881040A08DD
:103D680085040A0859070A086B0A0A0811100A0884
:103D780019150A085D150A0861150A0865150A0863
:103D880069150A086D150A0871150A0875150A08D3
:103D980079150A087D150A0881150A0885150A0883
:103DA80089150A088D150A0891150A0895150A0833
:103DB80099150A089D150A08A1150A08A5150A08E3
:103DC800A9150A08D9190A08B11D0A082D1E0A08DA
:103DD800551E0A086D230A0859240A089D240A0852
:103DE8004D250A08D1250A0895260A0859270A08E0
:083DF8000000000000000000C3
:043E000000000000BE
:103E0400010000000100000007000000393B0A081F
:103E1400ED3B0A0800000000F03C0A08103D0A08C7
:103E2400303D0A080000000000000000000000000F
:103E340000000000D9390A0800000000000000005A
:103E4400000000000000000000000000000000006E
:103E5400000000000000000000000000000000005E
:103E6400000000000000000000000000000000004E
:083E740000000000140300200F
:103E7C00FFFFFFFF00000102030405060708090A03
:103E8C000B0C0D0E0F101112131415161718191AFE
:083E9C001B1C1D1E1F20280045
:043EA4007856341206
:04000005080A0018CD
:00000001FF
